{
  "address": "0x0EeCE51312246715193CEAA4E693F4734e893F70",
  "abi": [
    {
      "inputs": [],
      "name": "CrowdFunding__DeadlineAlreadyPassed",
      "type": "error"
    },
    {
      "inputs": [],
      "name": "CrowdFunding__DeadlineNotReached",
      "type": "error"
    },
    {
      "inputs": [],
      "name": "CrowdFunding__DeadlineNotValid",
      "type": "error"
    },
    {
      "inputs": [],
      "name": "CrowdFunding__ErrorWithdrawing",
      "type": "error"
    },
    {
      "inputs": [],
      "name": "CrowdFunding__FundsAlreadyWithdrawen",
      "type": "error"
    },
    {
      "inputs": [],
      "name": "CrowdFunding__NoEthSent",
      "type": "error"
    },
    {
      "inputs": [],
      "name": "CrowdFunding__NotFundraiser",
      "type": "error"
    },
    {
      "inputs": [],
      "name": "CrowdFunding__SignerDidNotDonate",
      "type": "error"
    },
    {
      "inputs": [],
      "name": "CrowdFunding__TargetAmountNotReached",
      "type": "error"
    },
    {
      "inputs": [],
      "name": "CrowdFunding__TargetAmountReached",
      "type": "error"
    },
    {
      "inputs": [],
      "name": "CrowdFunding__TargetNotValid",
      "type": "error"
    },
    {
      "anonymous": false,
      "inputs": [
        {
          "indexed": true,
          "internalType": "uint256",
          "name": "id",
          "type": "uint256"
        },
        {
          "indexed": true,
          "internalType": "address",
          "name": "donator",
          "type": "address"
        },
        {
          "indexed": true,
          "internalType": "uint256",
          "name": "amount",
          "type": "uint256"
        },
        {
          "indexed": false,
          "internalType": "uint256",
          "name": "time",
          "type": "uint256"
        }
      ],
      "name": "Donated",
      "type": "event"
    },
    {
      "anonymous": false,
      "inputs": [
        {
          "indexed": true,
          "internalType": "uint256",
          "name": "id",
          "type": "uint256"
        },
        {
          "indexed": true,
          "internalType": "uint256",
          "name": "amount",
          "type": "uint256"
        },
        {
          "indexed": true,
          "internalType": "address",
          "name": "donator",
          "type": "address"
        }
      ],
      "name": "DonatorWithdrawed",
      "type": "event"
    },
    {
      "anonymous": false,
      "inputs": [
        {
          "indexed": true,
          "internalType": "uint256",
          "name": "id",
          "type": "uint256"
        },
        {
          "indexed": true,
          "internalType": "address",
          "name": "owner",
          "type": "address"
        },
        {
          "indexed": true,
          "internalType": "uint256",
          "name": "deadline",
          "type": "uint256"
        },
        {
          "indexed": false,
          "internalType": "uint256",
          "name": "target",
          "type": "uint256"
        },
        {
          "indexed": false,
          "internalType": "string",
          "name": "imageCdn",
          "type": "string"
        },
        {
          "indexed": false,
          "internalType": "string",
          "name": "title",
          "type": "string"
        },
        {
          "indexed": false,
          "internalType": "string",
          "name": "desc",
          "type": "string"
        }
      ],
      "name": "FundraiserCreated",
      "type": "event"
    },
    {
      "anonymous": false,
      "inputs": [
        {
          "indexed": true,
          "internalType": "uint256",
          "name": "id",
          "type": "uint256"
        },
        {
          "indexed": true,
          "internalType": "uint256",
          "name": "amount",
          "type": "uint256"
        }
      ],
      "name": "FundraiserWithdrawed",
      "type": "event"
    },
    {
      "anonymous": false,
      "inputs": [
        {
          "indexed": true,
          "internalType": "address",
          "name": "previousOwner",
          "type": "address"
        },
        {
          "indexed": true,
          "internalType": "address",
          "name": "newOwner",
          "type": "address"
        }
      ],
      "name": "OwnershipTransferred",
      "type": "event"
    },
    {
      "inputs": [
        {
          "internalType": "uint256",
          "name": "_deadline",
          "type": "uint256"
        },
        {
          "internalType": "uint256",
          "name": "_target",
          "type": "uint256"
        },
        {
          "internalType": "string",
          "name": "_imgCdn",
          "type": "string"
        },
        {
          "internalType": "string",
          "name": "_title",
          "type": "string"
        },
        {
          "internalType": "string",
          "name": "_desc",
          "type": "string"
        }
      ],
      "name": "createFundraiser",
      "outputs": [],
      "stateMutability": "nonpayable",
      "type": "function"
    },
    {
      "inputs": [
        {
          "internalType": "uint256",
          "name": "_id",
          "type": "uint256"
        }
      ],
      "name": "donate",
      "outputs": [],
      "stateMutability": "payable",
      "type": "function"
    },
    {
      "inputs": [
        {
          "internalType": "uint256",
          "name": "_id",
          "type": "uint256"
        }
      ],
      "name": "donatorWithdraw",
      "outputs": [],
      "stateMutability": "nonpayable",
      "type": "function"
    },
    {
      "inputs": [],
      "name": "fundraiserCounter",
      "outputs": [
        {
          "internalType": "uint256",
          "name": "",
          "type": "uint256"
        }
      ],
      "stateMutability": "view",
      "type": "function"
    },
    {
      "inputs": [
        {
          "internalType": "uint256",
          "name": "_id",
          "type": "uint256"
        }
      ],
      "name": "fundraiserWithdraw",
      "outputs": [],
      "stateMutability": "nonpayable",
      "type": "function"
    },
    {
      "inputs": [
        {
          "internalType": "uint256",
          "name": "",
          "type": "uint256"
        }
      ],
      "name": "fundraisers",
      "outputs": [
        {
          "internalType": "uint256",
          "name": "raisedAmount",
          "type": "uint256"
        },
        {
          "internalType": "uint256",
          "name": "deadline",
          "type": "uint256"
        },
        {
          "internalType": "uint256",
          "name": "target",
          "type": "uint256"
        },
        {
          "internalType": "address",
          "name": "owner",
          "type": "address"
        },
        {
          "internalType": "bool",
          "name": "withdrawen",
          "type": "bool"
        }
      ],
      "stateMutability": "view",
      "type": "function"
    },
    {
      "inputs": [
        {
          "internalType": "uint256",
          "name": "_id",
          "type": "uint256"
        },
        {
          "internalType": "address",
          "name": "donator",
          "type": "address"
        }
      ],
      "name": "getDonationsAmount",
      "outputs": [
        {
          "internalType": "uint256",
          "name": "",
          "type": "uint256"
        }
      ],
      "stateMutability": "view",
      "type": "function"
    },
    {
      "inputs": [],
      "name": "getRaisedAmountPerCampaigns",
      "outputs": [
        {
          "internalType": "address",
          "name": "",
          "type": "address"
        }
      ],
      "stateMutability": "view",
      "type": "function"
    },
    {
      "inputs": [],
      "name": "owner",
      "outputs": [
        {
          "internalType": "address",
          "name": "",
          "type": "address"
        }
      ],
      "stateMutability": "view",
      "type": "function"
    },
    {
      "inputs": [],
      "name": "renounceOwnership",
      "outputs": [],
      "stateMutability": "nonpayable",
      "type": "function"
    },
    {
      "inputs": [
        {
          "internalType": "address",
          "name": "newOwner",
          "type": "address"
        }
      ],
      "name": "transferOwnership",
      "outputs": [],
      "stateMutability": "nonpayable",
      "type": "function"
    }
  ],
  "transactionHash": "0x9cf2ddbe07e2fb75d2d2f282af57e5d0960304bc1968a4bf00ef098cb12fb317",
  "args": [],
  "numDeployments": 1,
  "solcInputHash": "e648e2873b08112c9f997409ac00ad66",
  "bytecode": "0x6080604052600160025534801561001557600080fd5b5061001f33610024565b610074565b600080546001600160a01b038381166001600160a01b0319831681178455604051919092169283917f8be0079c531659141344cd1fd0a4f28419497f9722a3daafe3b4186f6b6457e09190a35050565b610c86806100836000396000f3fe60806040526004361061009c5760003560e01c8063b0852b8a11610064578063b0852b8a14610146578063b3624ef414610166578063c4acb2de14610186578063f14faf6f146101a6578063f2fde38b146101b9578063f38f72fb146101d957600080fd5b806352af712e146100a1578063715018a6146100d45780637e5069af146100eb5780638da5cb5b14610112578063999bf02f14610130575b600080fd5b3480156100ad57600080fd5b506100c16100bc3660046109f9565b610264565b6040519081526020015b60405180910390f35b3480156100e057600080fd5b506100e9610293565b005b3480156100f757600080fd5b50305b6040516001600160a01b0390911681526020016100cb565b34801561011e57600080fd5b506000546001600160a01b03166100fa565b34801561013c57600080fd5b506100c160025481565b34801561015257600080fd5b506100e9610161366004610ac8565b6102a7565b34801561017257600080fd5b506100e9610181366004610b64565b6103d7565b34801561019257600080fd5b506100e96101a1366004610b64565b61057f565b6100e96101b4366004610b64565b610786565b3480156101c557600080fd5b506100e96101d4366004610b7d565b6108ba565b3480156101e557600080fd5b506102316101f4366004610b64565b600160208190526000918252604090912080549181015460028201546003909201549091906001600160a01b03811690600160a01b900460ff1685565b604080519586526020860194909452928401919091526001600160a01b031660608301521515608082015260a0016100cb565b60008281526001602081815260408084206001600160a01b038616855260040190915290912001545b92915050565b61029b610933565b6102a5600061098d565b565b428510156102c85760405163c2bd83ef60e01b815260040160405180910390fd5b600084116102e957604051633cf7016960e21b815260040160405180910390fd5b6002805460009081526001602081815260408084208481558084018b90558086018a90556003810180546001600160a81b0319163360ff60a01b198116919091179091558251606081018452875481528085018781528185018881528389526004850190965296849020905181559551948601949094559151938501805460ff191694151594909417909355925491518892907f5f239cd3091e8b31fdb017faab3ee2cbcae15e6707ab9224afd4d127d530ef48906103af908a908a908a908a90610be5565b60405180910390a46001600260008282546103ca9190610c2f565b9091555050505050505050565b6000818152600160205260409020600301546001600160a01b031633146104115760405163766cb79f60e11b815260040160405180910390fd5b60008181526001602052604090206002810154905410156104455760405163149f3a7160e31b815260040160405180910390fd5b60008181526001602081905260409091200154421015610478576040516349b3954d60e11b815260040160405180910390fd5b600081815260016020819052604090912060030154600160a01b900460ff16151590036104b8576040516376ba674960e11b815260040160405180910390fd5b60008181526001602052604080822060038101805460ff60a01b1916600160a01b1790555490513391908381818185875af1925050503d806000811461051a576040519150601f19603f3d011682016040523d82523d6000602084013e61051f565b606091505b50509050806105415760405163f0130daf60e01b815260040160405180910390fd5b600082815260016020526040808220549051909184917f49330fa10bb40c1c48d5eb4467983074f3026995e167ca8ce6403c19cfdaebbd9190a35050565b600081815260016020526040902060028101549054106105b257604051631f6bcc2b60e11b815260040160405180910390fd5b600081815260016020819052604090912001544210156105e5576040516349b3954d60e11b815260040160405180910390fd5b600081815260016020818152604080842033855260040190915290912001546106215760405163516564a560e01b815260040160405180910390fd5b60008181526001602081815260408084203385526004019091529091206002015460ff1615159003610666576040516376ba674960e11b815260040160405180910390fd5b6000818152600160208181526040808420338086526004909101909252808420808401546002909101805460ff19169094179093555191929183908381818185875af1925050503d80600081146106d9576040519150601f19603f3d011682016040523d82523d6000602084013e6106de565b606091505b50509050806107345760405162461bcd60e51b815260206004820152601f60248201527f4572726f72206f636375726564207768696c652073656e64696e67206574680060448201526064015b60405180910390fd5b806107525760405163f0130daf60e01b815260040160405180910390fd5b6040513390839085907f0f208e48ef553c2ad80bf5a676815c3b0e98c1bf8453f0e58ad004fc84b3789490600090a4505050565b600034116107a75760405163371ab34d60e21b815260040160405180910390fd5b600081815260016020819052604090912001544211156107da57604051635c0bea8d60e01b815260040160405180910390fd5b60008181526001602081815260408084203385526004019091528220015490036108295760008181526001602090815260408083203384526004019091529020818155600201805460ff191690555b60008181526001602081815260408084203385526004019091528220018054349290610856908490610c2f565b909155505060008181526001602052604081208054349290610879908490610c2f565b90915550506040514281523490339083907f27e413b8931dc4cb7edc879292ebc482a3047336d03423ea91addae7a2cf850a9060200160405180910390a450565b6108c2610933565b6001600160a01b0381166109275760405162461bcd60e51b815260206004820152602660248201527f4f776e61626c653a206e6577206f776e657220697320746865207a65726f206160448201526564647265737360d01b606482015260840161072b565b6109308161098d565b50565b6000546001600160a01b031633146102a55760405162461bcd60e51b815260206004820181905260248201527f4f776e61626c653a2063616c6c6572206973206e6f7420746865206f776e6572604482015260640161072b565b600080546001600160a01b038381166001600160a01b0319831681178455604051919092169283917f8be0079c531659141344cd1fd0a4f28419497f9722a3daafe3b4186f6b6457e09190a35050565b80356001600160a01b03811681146109f457600080fd5b919050565b60008060408385031215610a0c57600080fd5b82359150610a1c602084016109dd565b90509250929050565b634e487b7160e01b600052604160045260246000fd5b600082601f830112610a4c57600080fd5b813567ffffffffffffffff80821115610a6757610a67610a25565b604051601f8301601f19908116603f01168101908282118183101715610a8f57610a8f610a25565b81604052838152866020858801011115610aa857600080fd5b836020870160208301376000602085830101528094505050505092915050565b600080600080600060a08688031215610ae057600080fd5b8535945060208601359350604086013567ffffffffffffffff80821115610b0657600080fd5b610b1289838a01610a3b565b94506060880135915080821115610b2857600080fd5b610b3489838a01610a3b565b93506080880135915080821115610b4a57600080fd5b50610b5788828901610a3b565b9150509295509295909350565b600060208284031215610b7657600080fd5b5035919050565b600060208284031215610b8f57600080fd5b610b98826109dd565b9392505050565b6000815180845260005b81811015610bc557602081850181015186830182015201610ba9565b506000602082860101526020601f19601f83011685010191505092915050565b848152608060208201526000610bfe6080830186610b9f565b8281036040840152610c108186610b9f565b90508281036060840152610c248185610b9f565b979650505050505050565b8082018082111561028d57634e487b7160e01b600052601160045260246000fdfea2646970667358221220597f91b03ec21499a677252b5f1d19c1b3d0cadcc6b96aa17b7c2a1ffd27deb564736f6c63430008110033",
  "devdoc": {
    "kind": "dev",
    "methods": {
      "owner()": {
        "details": "Returns the address of the current owner."
      },
      "renounceOwnership()": {
        "details": "Leaves the contract without owner. It will not be possible to call `onlyOwner` functions anymore. Can only be called by the current owner. NOTE: Renouncing ownership will leave the contract without an owner, thereby removing any functionality that is only available to the owner."
      },
      "transferOwnership(address)": {
        "details": "Transfers ownership of the contract to a new account (`newOwner`). Can only be called by the current owner."
      }
    },
    "version": 1
  },
  "userdoc": {
    "kind": "user",
    "methods": {},
    "version": 1
  },
  "storageLayout": {
    "storage": [
      {
        "astId": 7,
        "contract": "contracts/CrowdFunding.sol:CrowdFunding",
        "label": "_owner",
        "offset": 0,
        "slot": "0",
        "type": "t_address"
      },
      {
        "astId": 232,
        "contract": "contracts/CrowdFunding.sol:CrowdFunding",
        "label": "fundraisers",
        "offset": 0,
        "slot": "1",
        "type": "t_mapping(t_uint256,t_struct(Fundraiser)227_storage)"
      },
      {
        "astId": 235,
        "contract": "contracts/CrowdFunding.sol:CrowdFunding",
        "label": "fundraiserCounter",
        "offset": 0,
        "slot": "2",
        "type": "t_uint256"
      }
    ],
    "types": {
      "t_address": {
        "encoding": "inplace",
        "label": "address",
        "numberOfBytes": "20"
      },
      "t_bool": {
        "encoding": "inplace",
        "label": "bool",
        "numberOfBytes": "1"
      },
      "t_mapping(t_address,t_struct(Donations)211_storage)": {
        "encoding": "mapping",
        "key": "t_address",
        "label": "mapping(address => struct CrowdFunding.Donations)",
        "numberOfBytes": "32",
        "value": "t_struct(Donations)211_storage"
      },
      "t_mapping(t_uint256,t_struct(Fundraiser)227_storage)": {
        "encoding": "mapping",
        "key": "t_uint256",
        "label": "mapping(uint256 => struct CrowdFunding.Fundraiser)",
        "numberOfBytes": "32",
        "value": "t_struct(Fundraiser)227_storage"
      },
      "t_struct(Donations)211_storage": {
        "encoding": "inplace",
        "label": "struct CrowdFunding.Donations",
        "members": [
          {
            "astId": 206,
            "contract": "contracts/CrowdFunding.sol:CrowdFunding",
            "label": "fundraiserId",
            "offset": 0,
            "slot": "0",
            "type": "t_uint256"
          },
          {
            "astId": 208,
            "contract": "contracts/CrowdFunding.sol:CrowdFunding",
            "label": "amount",
            "offset": 0,
            "slot": "1",
            "type": "t_uint256"
          },
          {
            "astId": 210,
            "contract": "contracts/CrowdFunding.sol:CrowdFunding",
            "label": "withdrawen",
            "offset": 0,
            "slot": "2",
            "type": "t_bool"
          }
        ],
        "numberOfBytes": "96"
      },
      "t_struct(Fundraiser)227_storage": {
        "encoding": "inplace",
        "label": "struct CrowdFunding.Fundraiser",
        "members": [
          {
            "astId": 213,
            "contract": "contracts/CrowdFunding.sol:CrowdFunding",
            "label": "raisedAmount",
            "offset": 0,
            "slot": "0",
            "type": "t_uint256"
          },
          {
            "astId": 215,
            "contract": "contracts/CrowdFunding.sol:CrowdFunding",
            "label": "deadline",
            "offset": 0,
            "slot": "1",
            "type": "t_uint256"
          },
          {
            "astId": 217,
            "contract": "contracts/CrowdFunding.sol:CrowdFunding",
            "label": "target",
            "offset": 0,
            "slot": "2",
            "type": "t_uint256"
          },
          {
            "astId": 219,
            "contract": "contracts/CrowdFunding.sol:CrowdFunding",
            "label": "owner",
            "offset": 0,
            "slot": "3",
            "type": "t_address"
          },
          {
            "astId": 221,
            "contract": "contracts/CrowdFunding.sol:CrowdFunding",
            "label": "withdrawen",
            "offset": 20,
            "slot": "3",
            "type": "t_bool"
          },
          {
            "astId": 226,
            "contract": "contracts/CrowdFunding.sol:CrowdFunding",
            "label": "donations",
            "offset": 0,
            "slot": "4",
            "type": "t_mapping(t_address,t_struct(Donations)211_storage)"
          }
        ],
        "numberOfBytes": "160"
      },
      "t_uint256": {
        "encoding": "inplace",
        "label": "uint256",
        "numberOfBytes": "32"
      }
    }
  }
}