{
  "address": "0xc338EBc32272D2D9B3Af4Dc10BdCC5Da062a1184",
  "abi": [
    {
      "inputs": [],
      "name": "CrowdFunding__DeadlineAlreadyPassed",
      "type": "error"
    },
    {
      "inputs": [],
      "name": "CrowdFunding__DeadlineNotReached",
      "type": "error"
    },
    {
      "inputs": [],
      "name": "CrowdFunding__DeadlineNotValid",
      "type": "error"
    },
    {
      "inputs": [],
      "name": "CrowdFunding__ErrorWithdrawing",
      "type": "error"
    },
    {
      "inputs": [],
      "name": "CrowdFunding__FundsAlreadyWithdrawen",
      "type": "error"
    },
    {
      "inputs": [],
      "name": "CrowdFunding__NoEthSent",
      "type": "error"
    },
    {
      "inputs": [],
      "name": "CrowdFunding__NotFundraiser",
      "type": "error"
    },
    {
      "inputs": [],
      "name": "CrowdFunding__SignerDidNotDonate",
      "type": "error"
    },
    {
      "inputs": [],
      "name": "CrowdFunding__TargetAmountNotReached",
      "type": "error"
    },
    {
      "inputs": [],
      "name": "CrowdFunding__TargetAmountReached",
      "type": "error"
    },
    {
      "inputs": [],
      "name": "CrowdFunding__TargetNotValid",
      "type": "error"
    },
    {
      "anonymous": false,
      "inputs": [
        {
          "indexed": true,
          "internalType": "uint256",
          "name": "id",
          "type": "uint256"
        },
        {
          "indexed": true,
          "internalType": "address",
          "name": "donator",
          "type": "address"
        },
        {
          "indexed": true,
          "internalType": "uint256",
          "name": "amount",
          "type": "uint256"
        },
        {
          "indexed": false,
          "internalType": "uint256",
          "name": "time",
          "type": "uint256"
        }
      ],
      "name": "Donated",
      "type": "event"
    },
    {
      "anonymous": false,
      "inputs": [
        {
          "indexed": true,
          "internalType": "uint256",
          "name": "id",
          "type": "uint256"
        },
        {
          "indexed": true,
          "internalType": "uint256",
          "name": "amount",
          "type": "uint256"
        },
        {
          "indexed": true,
          "internalType": "address",
          "name": "donator",
          "type": "address"
        }
      ],
      "name": "DonatorWithdrawed",
      "type": "event"
    },
    {
      "anonymous": false,
      "inputs": [
        {
          "indexed": true,
          "internalType": "uint256",
          "name": "id",
          "type": "uint256"
        },
        {
          "indexed": true,
          "internalType": "address",
          "name": "owner",
          "type": "address"
        },
        {
          "indexed": true,
          "internalType": "uint256",
          "name": "deadline",
          "type": "uint256"
        },
        {
          "indexed": false,
          "internalType": "uint256",
          "name": "target",
          "type": "uint256"
        },
        {
          "indexed": false,
          "internalType": "string",
          "name": "imageCdn",
          "type": "string"
        },
        {
          "indexed": false,
          "internalType": "string",
          "name": "title",
          "type": "string"
        },
        {
          "indexed": false,
          "internalType": "string",
          "name": "desc",
          "type": "string"
        }
      ],
      "name": "FundraiserCreated",
      "type": "event"
    },
    {
      "anonymous": false,
      "inputs": [
        {
          "indexed": true,
          "internalType": "uint256",
          "name": "id",
          "type": "uint256"
        },
        {
          "indexed": true,
          "internalType": "uint256",
          "name": "amount",
          "type": "uint256"
        }
      ],
      "name": "FundraiserWithdrawed",
      "type": "event"
    },
    {
      "anonymous": false,
      "inputs": [
        {
          "indexed": true,
          "internalType": "address",
          "name": "previousOwner",
          "type": "address"
        },
        {
          "indexed": true,
          "internalType": "address",
          "name": "newOwner",
          "type": "address"
        }
      ],
      "name": "OwnershipTransferred",
      "type": "event"
    },
    {
      "inputs": [
        {
          "internalType": "uint256",
          "name": "_deadline",
          "type": "uint256"
        },
        {
          "internalType": "uint256",
          "name": "_target",
          "type": "uint256"
        },
        {
          "internalType": "string",
          "name": "_imgCdn",
          "type": "string"
        },
        {
          "internalType": "string",
          "name": "_title",
          "type": "string"
        },
        {
          "internalType": "string",
          "name": "_desc",
          "type": "string"
        }
      ],
      "name": "createFundraiser",
      "outputs": [],
      "stateMutability": "nonpayable",
      "type": "function"
    },
    {
      "inputs": [
        {
          "internalType": "uint256",
          "name": "_id",
          "type": "uint256"
        }
      ],
      "name": "donate",
      "outputs": [],
      "stateMutability": "payable",
      "type": "function"
    },
    {
      "inputs": [
        {
          "internalType": "uint256",
          "name": "_id",
          "type": "uint256"
        }
      ],
      "name": "donatorWithdraw",
      "outputs": [],
      "stateMutability": "nonpayable",
      "type": "function"
    },
    {
      "inputs": [],
      "name": "fundraiserCounter",
      "outputs": [
        {
          "internalType": "uint256",
          "name": "",
          "type": "uint256"
        }
      ],
      "stateMutability": "view",
      "type": "function"
    },
    {
      "inputs": [
        {
          "internalType": "uint256",
          "name": "_id",
          "type": "uint256"
        }
      ],
      "name": "fundraiserWithdraw",
      "outputs": [],
      "stateMutability": "nonpayable",
      "type": "function"
    },
    {
      "inputs": [
        {
          "internalType": "uint256",
          "name": "",
          "type": "uint256"
        }
      ],
      "name": "fundraisers",
      "outputs": [
        {
          "internalType": "uint256",
          "name": "raisedAmount",
          "type": "uint256"
        },
        {
          "internalType": "uint256",
          "name": "deadline",
          "type": "uint256"
        },
        {
          "internalType": "uint256",
          "name": "target",
          "type": "uint256"
        },
        {
          "internalType": "address",
          "name": "owner",
          "type": "address"
        },
        {
          "internalType": "bool",
          "name": "withdrawen",
          "type": "bool"
        }
      ],
      "stateMutability": "view",
      "type": "function"
    },
    {
      "inputs": [
        {
          "internalType": "uint256",
          "name": "_id",
          "type": "uint256"
        },
        {
          "internalType": "address",
          "name": "donator",
          "type": "address"
        }
      ],
      "name": "getDonationsAmount",
      "outputs": [
        {
          "internalType": "uint256",
          "name": "",
          "type": "uint256"
        }
      ],
      "stateMutability": "view",
      "type": "function"
    },
    {
      "inputs": [
        {
          "internalType": "uint256[]",
          "name": "_ids",
          "type": "uint256[]"
        },
        {
          "internalType": "address",
          "name": "donator",
          "type": "address"
        }
      ],
      "name": "getDonationsAmountPerCampaignsPerDonator",
      "outputs": [
        {
          "internalType": "uint256[]",
          "name": "",
          "type": "uint256[]"
        },
        {
          "internalType": "uint256[]",
          "name": "",
          "type": "uint256[]"
        },
        {
          "internalType": "uint256[]",
          "name": "",
          "type": "uint256[]"
        },
        {
          "internalType": "uint256[]",
          "name": "",
          "type": "uint256[]"
        },
        {
          "internalType": "bool[]",
          "name": "",
          "type": "bool[]"
        }
      ],
      "stateMutability": "view",
      "type": "function"
    },
    {
      "inputs": [
        {
          "internalType": "uint256[]",
          "name": "_ids",
          "type": "uint256[]"
        }
      ],
      "name": "getRaisedAmountPerCampaigns",
      "outputs": [
        {
          "internalType": "uint256[]",
          "name": "",
          "type": "uint256[]"
        },
        {
          "internalType": "bool[]",
          "name": "",
          "type": "bool[]"
        }
      ],
      "stateMutability": "view",
      "type": "function"
    },
    {
      "inputs": [],
      "name": "owner",
      "outputs": [
        {
          "internalType": "address",
          "name": "",
          "type": "address"
        }
      ],
      "stateMutability": "view",
      "type": "function"
    },
    {
      "inputs": [],
      "name": "renounceOwnership",
      "outputs": [],
      "stateMutability": "nonpayable",
      "type": "function"
    },
    {
      "inputs": [
        {
          "internalType": "address",
          "name": "newOwner",
          "type": "address"
        }
      ],
      "name": "transferOwnership",
      "outputs": [],
      "stateMutability": "nonpayable",
      "type": "function"
    }
  ],
  "transactionHash": "0xe675041d3b6148161ab5be5ab669191e4a24576dc304373296e0ecd92089d2d5",
  "args": [],
  "numDeployments": 2,
  "solcInputHash": "95e208ee220a51ab5aa2dfdc1d468bd7",
  "bytecode": "0x6080604052600160025534801561001557600080fd5b5061001f33610024565b610074565b600080546001600160a01b038381166001600160a01b0319831681178455604051919092169283917f8be0079c531659141344cd1fd0a4f28419497f9722a3daafe3b4186f6b6457e09190a35050565b611402806100836000396000f3fe6080604052600436106100a75760003560e01c8063b3624ef411610064578063b3624ef414610189578063c4acb2de146101a9578063f14faf6f146101c9578063f2fde38b146101dc578063f38f72fb146101fc578063f76f81251461028757600080fd5b806305e08674146100ac57806352af712e146100e6578063715018a6146101145780638da5cb5b1461012b578063999bf02f14610153578063b0852b8a14610169575b600080fd5b3480156100b857600080fd5b506100cc6100c7366004610ff6565b6102b5565b6040516100dd9594939291906110b0565b60405180910390f35b3480156100f257600080fd5b5061010661010136600461111d565b610635565b6040519081526020016100dd565b34801561012057600080fd5b50610129610664565b005b34801561013757600080fd5b506000546040516001600160a01b0390911681526020016100dd565b34801561015f57600080fd5b5061010660025481565b34801561017557600080fd5b506101296101843660046111af565b610678565b34801561019557600080fd5b506101296101a436600461124a565b6107a8565b3480156101b557600080fd5b506101296101c436600461124a565b610950565b6101296101d736600461124a565b610b57565b3480156101e857600080fd5b506101296101f7366004611263565b610c8b565b34801561020857600080fd5b5061025461021736600461124a565b600160208190526000918252604090912080549181015460028201546003909201549091906001600160a01b03811690600160a01b900460ff1685565b604080519586526020860194909452928401919091526001600160a01b031660608301521515608082015260a0016100dd565b34801561029357600080fd5b506102a76102a2366004611285565b610d04565b6040516100dd9291906112c1565b6060806060806060600087516001600160401b038111156102d8576102d8610f15565b604051908082528060200260200182016040528015610301578160200160208202803683370190505b509050600088516001600160401b0381111561031f5761031f610f15565b604051908082528060200260200182016040528015610348578160200160208202803683370190505b509050600089516001600160401b0381111561036657610366610f15565b60405190808252806020026020018201604052801561038f578160200160208202803683370190505b50905060008a516001600160401b038111156103ad576103ad610f15565b6040519080825280602002602001820160405280156103d6578160200160208202803683370190505b50905060008b516001600160401b038111156103f4576103f4610f15565b60405190808252806020026020018201604052801561041d578160200160208202803683370190505b50905060005b8c5181101561062157600160008e8381518110610442576104426112ef565b6020026020010151815260200190815260200160002060040160008d6001600160a01b03166001600160a01b0316815260200190815260200160002060010154868281518110610494576104946112ef565b602002602001018181525050600160008e83815181106104b6576104b66112ef565b60200260200101518152602001908152602001600020600101548582815181106104e2576104e26112ef565b602002602001018181525050600160008e8381518110610504576105046112ef565b6020026020010151815260200190815260200160002060000154848281518110610530576105306112ef565b602002602001018181525050600160008e8381518110610552576105526112ef565b602002602001015181526020019081526020016000206002015483828151811061057e5761057e6112ef565b602002602001018181525050600160008e83815181106105a0576105a06112ef565b6020026020010151815260200190815260200160002060040160008d6001600160a01b03166001600160a01b0316815260200190815260200160002060020160009054906101000a900460ff168282815181106105ff576105ff6112ef565b91151560209283029190910190910152806106198161131b565b915050610423565b50939b929a50909850965090945092505050565b60008281526001602081815260408084206001600160a01b038616855260040190915290912001545b92915050565b61066c610e6b565b6106766000610ec5565b565b428510156106995760405163c2bd83ef60e01b815260040160405180910390fd5b600084116106ba57604051633cf7016960e21b815260040160405180910390fd5b6002805460009081526001602081815260408084208481558084018b90558086018a90556003810180546001600160a81b0319163360ff60a01b198116919091179091558251606081018452875481528085018781528185018881528389526004850190965296849020905181559551948601949094559151938501805460ff191694151594909417909355925491518892907f5f239cd3091e8b31fdb017faab3ee2cbcae15e6707ab9224afd4d127d530ef4890610780908a908a908a908a9061137a565b60405180910390a460016002600082825461079b91906113b9565b9091555050505050505050565b6000818152600160205260409020600301546001600160a01b031633146107e25760405163766cb79f60e11b815260040160405180910390fd5b60008181526001602052604090206002810154905410156108165760405163149f3a7160e31b815260040160405180910390fd5b60008181526001602081905260409091200154421015610849576040516349b3954d60e11b815260040160405180910390fd5b600081815260016020819052604090912060030154600160a01b900460ff1615159003610889576040516376ba674960e11b815260040160405180910390fd5b60008181526001602052604080822060038101805460ff60a01b1916600160a01b1790555490513391908381818185875af1925050503d80600081146108eb576040519150601f19603f3d011682016040523d82523d6000602084013e6108f0565b606091505b50509050806109125760405163f0130daf60e01b815260040160405180910390fd5b600082815260016020526040808220549051909184917f49330fa10bb40c1c48d5eb4467983074f3026995e167ca8ce6403c19cfdaebbd9190a35050565b6000818152600160205260409020600281015490541061098357604051631f6bcc2b60e11b815260040160405180910390fd5b600081815260016020819052604090912001544210156109b6576040516349b3954d60e11b815260040160405180910390fd5b600081815260016020818152604080842033855260040190915290912001546109f25760405163516564a560e01b815260040160405180910390fd5b60008181526001602081815260408084203385526004019091529091206002015460ff1615159003610a37576040516376ba674960e11b815260040160405180910390fd5b6000818152600160208181526040808420338086526004909101909252808420808401546002909101805460ff19169094179093555191929183908381818185875af1925050503d8060008114610aaa576040519150601f19603f3d011682016040523d82523d6000602084013e610aaf565b606091505b5050905080610b055760405162461bcd60e51b815260206004820152601f60248201527f4572726f72206f636375726564207768696c652073656e64696e67206574680060448201526064015b60405180910390fd5b80610b235760405163f0130daf60e01b815260040160405180910390fd5b6040513390839085907f0f208e48ef553c2ad80bf5a676815c3b0e98c1bf8453f0e58ad004fc84b3789490600090a4505050565b60003411610b785760405163371ab34d60e21b815260040160405180910390fd5b60008181526001602081905260409091200154421115610bab57604051635c0bea8d60e01b815260040160405180910390fd5b6000818152600160208181526040808420338552600401909152822001549003610bfa5760008181526001602090815260408083203384526004019091529020818155600201805460ff191690555b60008181526001602081815260408084203385526004019091528220018054349290610c279084906113b9565b909155505060008181526001602052604081208054349290610c4a9084906113b9565b90915550506040514281523490339083907f27e413b8931dc4cb7edc879292ebc482a3047336d03423ea91addae7a2cf850a9060200160405180910390a450565b610c93610e6b565b6001600160a01b038116610cf85760405162461bcd60e51b815260206004820152602660248201527f4f776e61626c653a206e6577206f776e657220697320746865207a65726f206160448201526564647265737360d01b6064820152608401610afc565b610d0181610ec5565b50565b606080600083516001600160401b03811115610d2257610d22610f15565b604051908082528060200260200182016040528015610d4b578160200160208202803683370190505b509050600084516001600160401b03811115610d6957610d69610f15565b604051908082528060200260200182016040528015610d92578160200160208202803683370190505b50905060005b8551811015610e605760016000878381518110610db757610db76112ef565b6020026020010151815260200190815260200160002060000154838281518110610de357610de36112ef565b60200260200101818152505060016000878381518110610e0557610e056112ef565b6020026020010151815260200190815260200160002060030160149054906101000a900460ff16828281518110610e3e57610e3e6112ef565b9115156020928302919091019091015280610e588161131b565b915050610d98565b509094909350915050565b6000546001600160a01b031633146106765760405162461bcd60e51b815260206004820181905260248201527f4f776e61626c653a2063616c6c6572206973206e6f7420746865206f776e65726044820152606401610afc565b600080546001600160a01b038381166001600160a01b0319831681178455604051919092169283917f8be0079c531659141344cd1fd0a4f28419497f9722a3daafe3b4186f6b6457e09190a35050565b634e487b7160e01b600052604160045260246000fd5b604051601f8201601f191681016001600160401b0381118282101715610f5357610f53610f15565b604052919050565b600082601f830112610f6c57600080fd5b813560206001600160401b03821115610f8757610f87610f15565b8160051b610f96828201610f2b565b9283528481018201928281019087851115610fb057600080fd5b83870192505b84831015610fcf57823582529183019190830190610fb6565b979650505050505050565b80356001600160a01b0381168114610ff157600080fd5b919050565b6000806040838503121561100957600080fd5b82356001600160401b0381111561101f57600080fd5b61102b85828601610f5b565b92505061103a60208401610fda565b90509250929050565b600081518084526020808501945080840160005b8381101561107357815187529582019590820190600101611057565b509495945050505050565b600081518084526020808501945080840160005b83811015611073578151151587529582019590820190600101611092565b60a0815260006110c360a0830188611043565b82810360208401526110d58188611043565b905082810360408401526110e98187611043565b905082810360608401526110fd8186611043565b90508281036080840152611111818561107e565b98975050505050505050565b6000806040838503121561113057600080fd5b8235915061103a60208401610fda565b600082601f83011261115157600080fd5b81356001600160401b0381111561116a5761116a610f15565b61117d601f8201601f1916602001610f2b565b81815284602083860101111561119257600080fd5b816020850160208301376000918101602001919091529392505050565b600080600080600060a086880312156111c757600080fd5b853594506020860135935060408601356001600160401b03808211156111ec57600080fd5b6111f889838a01611140565b9450606088013591508082111561120e57600080fd5b61121a89838a01611140565b9350608088013591508082111561123057600080fd5b5061123d88828901611140565b9150509295509295909350565b60006020828403121561125c57600080fd5b5035919050565b60006020828403121561127557600080fd5b61127e82610fda565b9392505050565b60006020828403121561129757600080fd5b81356001600160401b038111156112ad57600080fd5b6112b984828501610f5b565b949350505050565b6040815260006112d46040830185611043565b82810360208401526112e6818561107e565b95945050505050565b634e487b7160e01b600052603260045260246000fd5b634e487b7160e01b600052601160045260246000fd5b60006001820161132d5761132d611305565b5060010190565b6000815180845260005b8181101561135a5760208185018101518683018201520161133e565b506000602082860101526020601f19601f83011685010191505092915050565b8481526080602082015260006113936080830186611334565b82810360408401526113a58186611334565b90508281036060840152610fcf8185611334565b8082018082111561065e5761065e61130556fea2646970667358221220aa50d7130ec37762caa842c872ce6aaaff717a4766a62d7bad3b0c0f8d25887864736f6c63430008110033",
  "devdoc": {
    "kind": "dev",
    "methods": {
      "owner()": {
        "details": "Returns the address of the current owner."
      },
      "renounceOwnership()": {
        "details": "Leaves the contract without owner. It will not be possible to call `onlyOwner` functions anymore. Can only be called by the current owner. NOTE: Renouncing ownership will leave the contract without an owner, thereby removing any functionality that is only available to the owner."
      },
      "transferOwnership(address)": {
        "details": "Transfers ownership of the contract to a new account (`newOwner`). Can only be called by the current owner."
      }
    },
    "version": 1
  },
  "userdoc": {
    "kind": "user",
    "methods": {},
    "version": 1
  },
  "storageLayout": {
    "storage": [
      {
        "astId": 7,
        "contract": "contracts/CrowdFunding.sol:CrowdFunding",
        "label": "_owner",
        "offset": 0,
        "slot": "0",
        "type": "t_address"
      },
      {
        "astId": 232,
        "contract": "contracts/CrowdFunding.sol:CrowdFunding",
        "label": "fundraisers",
        "offset": 0,
        "slot": "1",
        "type": "t_mapping(t_uint256,t_struct(Fundraiser)227_storage)"
      },
      {
        "astId": 235,
        "contract": "contracts/CrowdFunding.sol:CrowdFunding",
        "label": "fundraiserCounter",
        "offset": 0,
        "slot": "2",
        "type": "t_uint256"
      }
    ],
    "types": {
      "t_address": {
        "encoding": "inplace",
        "label": "address",
        "numberOfBytes": "20"
      },
      "t_bool": {
        "encoding": "inplace",
        "label": "bool",
        "numberOfBytes": "1"
      },
      "t_mapping(t_address,t_struct(Donations)211_storage)": {
        "encoding": "mapping",
        "key": "t_address",
        "label": "mapping(address => struct CrowdFunding.Donations)",
        "numberOfBytes": "32",
        "value": "t_struct(Donations)211_storage"
      },
      "t_mapping(t_uint256,t_struct(Fundraiser)227_storage)": {
        "encoding": "mapping",
        "key": "t_uint256",
        "label": "mapping(uint256 => struct CrowdFunding.Fundraiser)",
        "numberOfBytes": "32",
        "value": "t_struct(Fundraiser)227_storage"
      },
      "t_struct(Donations)211_storage": {
        "encoding": "inplace",
        "label": "struct CrowdFunding.Donations",
        "members": [
          {
            "astId": 206,
            "contract": "contracts/CrowdFunding.sol:CrowdFunding",
            "label": "fundraiserId",
            "offset": 0,
            "slot": "0",
            "type": "t_uint256"
          },
          {
            "astId": 208,
            "contract": "contracts/CrowdFunding.sol:CrowdFunding",
            "label": "amount",
            "offset": 0,
            "slot": "1",
            "type": "t_uint256"
          },
          {
            "astId": 210,
            "contract": "contracts/CrowdFunding.sol:CrowdFunding",
            "label": "withdrawen",
            "offset": 0,
            "slot": "2",
            "type": "t_bool"
          }
        ],
        "numberOfBytes": "96"
      },
      "t_struct(Fundraiser)227_storage": {
        "encoding": "inplace",
        "label": "struct CrowdFunding.Fundraiser",
        "members": [
          {
            "astId": 213,
            "contract": "contracts/CrowdFunding.sol:CrowdFunding",
            "label": "raisedAmount",
            "offset": 0,
            "slot": "0",
            "type": "t_uint256"
          },
          {
            "astId": 215,
            "contract": "contracts/CrowdFunding.sol:CrowdFunding",
            "label": "deadline",
            "offset": 0,
            "slot": "1",
            "type": "t_uint256"
          },
          {
            "astId": 217,
            "contract": "contracts/CrowdFunding.sol:CrowdFunding",
            "label": "target",
            "offset": 0,
            "slot": "2",
            "type": "t_uint256"
          },
          {
            "astId": 219,
            "contract": "contracts/CrowdFunding.sol:CrowdFunding",
            "label": "owner",
            "offset": 0,
            "slot": "3",
            "type": "t_address"
          },
          {
            "astId": 221,
            "contract": "contracts/CrowdFunding.sol:CrowdFunding",
            "label": "withdrawen",
            "offset": 20,
            "slot": "3",
            "type": "t_bool"
          },
          {
            "astId": 226,
            "contract": "contracts/CrowdFunding.sol:CrowdFunding",
            "label": "donations",
            "offset": 0,
            "slot": "4",
            "type": "t_mapping(t_address,t_struct(Donations)211_storage)"
          }
        ],
        "numberOfBytes": "160"
      },
      "t_uint256": {
        "encoding": "inplace",
        "label": "uint256",
        "numberOfBytes": "32"
      }
    }
  }
}